:100000000C9434000C9451000C9451000C94510049
:100010000C9451000C9451000C9451000C9451001C
:100020000C9451000C9451000C9451000C9451000C
:100030000C9451000C943A010C9451000C94510012
:100040000C9451000C9451000C9460020C948E029C
:100050000C9451000C944F010C9451000C945100DD
:100060000C9451000C94510011241FBECFEFD8E026
:10007000DEBFCDBF11E0A0E0B1E0E8E5F6E002C0F0
:1000800005900D92A434B107D9F721E0A4E4B1E0C2
:1000900001C01D92A938B207E1F70E94F6000C9446
:1000A0002A030C940000299A85E08A95F1F7000054
:1000B00029980895CF93C82F662311F0289A01C07C
:1000C0002898549A559A569A579A5F985E985D98D0
:1000D0005C98CC230CF45F9AC6FD5E9AC5FD5D9AD0
:1000E000C4FD5C9A0E9453005F985E985D985C988E
:1000F000C3FD5F9AC2FD5E9AC1FD5D9AC0FD5C9A28
:100100000E9453005C9A5D9A5E9A5F9A87EB9BE02F
:100110000197F1F700C00000CF91089560E00E94C0
:100120005A000895611104C080580E948E000895FD
:1001300080540E948E00089581E00E948E000895F0
:1001400061E00E945A000895CF93DF93EC0121965D
:10015000FC018081882329F00E94A00089918111EF
:10016000FBCFDF91CF910895CF93C82F209A559A56
:10017000219A549A559A569A579A8FEF99EF019768
:10018000F1F700C000005D9A5C9A0E9453008FE175
:100190009EE40197F1F700C000000E9453008FEF2A
:1001A00090E00197F1F700C000000E9453008FEF2C
:1001B00090E00197F1F700C000005C980E945300A6
:1001C0008FEF90E00197F1F700C0000088E20E94F5
:1001D0008E0088E00E948E000E949C0086E00E94B3
:1001E0008E008C2F0E948E00CF9108958CE00E948B
:1001F000B40060E081E00E94920080E091E00E9403
:10020000A40061E083E00E94920087E091E00E94F8
:10021000A40061E088E00E9492008CE091E00E94DE
:10022000A400ECE7F0E080818F7780838081806498
:1002300080838081807F8083EAE7F0E0808180682E
:100240008083808188608083808187608083E1E80B
:10025000F0E080818B7F8083808183608083EFE604
:10026000F0E080818160808387E690E00E94B802A0
:100270007894FFCF1F920F920FB60F9211248F9395
:10028000EF93FF93EAE7F0E0808180648083FF9141
:10029000EF918F910F900FBE0F901F9018951F92A6
:1002A0000F920FB60F9211240F931F932F933F932A
:1002B0004F935F936F937F938F939F93AF93BF936E
:1002C000EF93FF93CF93DF93CDB7DEB72997DEBFD0
:1002D000CDBF85E0EFE3F1E0DE01119601900D92D4
:1002E0008A95E1F780E390E39F838E8380E390E03B
:1002F0009987888700917800109179004AE0BE01C3
:100300006F5F7F4FC8010E94F50240E1BE016A5F46
:100310007F4FC8010E94F502CE0101960E94E602BD
:100320008EE091E00E94E602CE0106960E94E6026F
:100330008EE091E00E94E60260E088E00E94920078
:1003400081E191E00E94A40060E088E00E949200B8
:10035000CE0101960E94A40060E08CE00E94920011
:1003600088E191E00E94A40060E08DE00E9492008C
:10037000CE0106960E94A40061E088E00E949200EF
:1003800081E191E00E94A40061E088E00E94920077
:100390000333110568F48AE191E00E94A4008AE128
:1003A00091E00E94E6028EE091E00E94E60269C0C0
:1003B000C801C3978B37910568F480E291E00E94F1
:1003C000A40080E291E00E94E6028EE091E00E94AB
:1003D000E60257C0C8018E5A91098739910568F421
:1003E00083E291E00E94A40083E291E00E94E60291
:1003F0008EE091E00E94E60244C0C801855491401D
:100400008A3C910568F488E291E00E94A40088E2A9
:1004100091E00E94E6028EE091E00E94E60231C087
:10042000C8018F5092408633914068F48DE291E08C
:100430000E94A4008DE291E00E94E6028EE091E02D
:100440000E94E6021EC0055413400B3B110568F4E0
:1004500084E391E00E94A40084E391E00E94E6021C
:100460008EE091E00E94E6020CC089E391E00E94D8
:10047000A40089E391E00E94E6028EE091E00E94F0
:10048000E6028EE091E00E94E60229960FB6F8940B
:10049000DEBF0FBECDBFDF91CF91FF91EF91BF9136
:1004A000AF919F918F917F916F915F914F913F910C
:1004B0002F911F910F910F900FBE0F901F901895C5
:1004C0001F920F920FB60F9211242F938F939F9329
:1004D000EF93FF938091C0002091C6008C71E09152
:1004E0004601EF5FEF7190914501E91739F0E09314
:1004F0004601F0E0E75BFE4F208301C082E090916F
:100500004401892B80934401FF91EF919F918F913A
:100510002F910F900FBE0F901F9018951F920F9262
:100520000FB60F9211248F939F93EF93FF939091A7
:10053000480180914701981769F0E0914701EF5F0A
:10054000EF71E0934701F0E0E759FE4F808180931F
:10055000C60005C0E1ECF0E080818F7D8083FF91D3
:10056000EF919F918F910F900FBE0F901F90189554
:1005700010924801109247011092460110924501D5
:1005800099231CF422E02093C00090789093C5003A
:100590008093C40088E98093C10086E08093C20004
:1005A0000895209148012F5F2F71909147012917DD
:1005B000E1F3E22FF0E0E759FE4F808320934801FA
:1005C000E1ECF0E08081806280830895CF93DF9337
:1005D000EC018881882331F021960E94D102899113
:1005E0008111FBCFDF91CF910895BB274A3031F4C1
:1005F000992322F4BDE2909581959F4F0C940103BD
:10060000BB27FB015527AA27880F991FAA1FA417EC
:1006100010F0A41B83955051B9F7A05DAA3308F0E0
:10062000A95DA193009779F7B111B1931192CB0114
:100630000C941A03DC01FC01672F71917723E1F719
:10064000329704C07C916D9370836291AE17BF079F
:08065000C8F30895F894FFCFF0
:1006580076616C75653A006B65793A0063000A0D3E
:100668000020202020202020200072696768740064
:10067800757000646F776E006C6566740073656CE6
:10068800656374006E6F6E65006572726F7200301C
:0406980030303000CE
:00000001FF
