S00F000030325F6C6564732E73726563AC
S11300000C9434000C943E000C943E000C943E007E
S11300100C943E000C943E000C943E000C943E0064
S11300200C943E000C943E000C943E000C943E0054
S11300300C943E000C943E000C943E000C943E0044
S11300400C943E000C943E000C943E000C943E0034
S11300500C943E000C943E000C943E000C943E0024
S11300600C943E000C943E0011241FBECFEFD8E048
S1130070DEBFCDBF0E9440000C945E000C940000D3
S1130080259A2D98389A409898B181E0892788B9A3
S113009052985A9A20E291E04A99FECF3FEF49E6FE
S11300A088E1315040408040E1F700C0000085B154
S11300B0822785B988B1892788B9EECFF894FFCF14
S9030000FC
