S00B00006932632E737265631B
S11300000C9434000C9451000C9451000C94510045
S11300100C9451000C9451000C9451000C94510018
S11300200C9451000C9451000C9451000C94510008
S11300300C9451000C9478000C9451000C945100D1
S11300400C9451000C9451000C9462010C94900196
S11300500C9451000C9451000C9451000C945100D8
S11300600C9451000C94510011241FBECFEFD8E022
S1130070DEBFCDBF11E0A0E0B1E0ECE5F4E002C0EA
S113008005900D92A63CB107D9F722E0A6ECB1E0A9
S113009001C01D92AB30B207E1F70E9453000C94EB
S11300A02C020C9400000E94310187E690E00E942B
S11300B0BA01E1E8F0E080818A7F808380818260F8
S11300C08083EFE6F0E0808181608083789482E031
S11300D091E00E94E8018DE191E00E94E80180E254
S11300E091E00E94E80188E391E00E94E801FFCFDB
S11300F01F920F920FB60F9211241F932F933F93C9
S11301004F935F936F937F938F939F93AF93BF931B
S1130110EF93FF93CF93DF93CDB7DEB72897DEBF7E
S1130120CDBF20E330E33A83298380E390E09C83CE
S11301308B833E832D8398878F8380910101823046
S113014069F1833009F45BC0813009F06DC080919E
S1130150000191E0980F909300018750803738F4A4
S113016082E080930101973009F061C006C087E006
S11301708093000181E08093010189E591E00E9470
S1130180E8018DE191E00E94E8018FE591E00E9491
S1130190E80187E991E00E94E80149C080910001EB
S11301A0880F0E944001182F0E945E018091000177
S11301B08F70B9F488EB91E00E94E801809100010E
S11301C082958F7040E1BE016F5F7F4F90E00E9487
S11301D0F701CE0101960E94E8018DEB91E00E94A7
S11301E0E801111104C083E08093010120C081E083
S11301F08093010181EC91E00E94E80118C0809194
S1130200000140E1BE016B5F7F4F90E00E94F70167
S1130210CE0105960E94E80183EC91E00E94E8017A
S113022081E08093010103C081E08093010128965D
S11302300FB6F894DEBF0FBECDBFDF91CF91FF9113
S1130240EF91BF91AF919F918F917F916F915F914A
S11302504F913F912F911F910F900FBE0F901F90C0
S1130260189587B18F7C87B988B1806388B9E9EB29
S1130270F0E080818C7F808388E98093B8000895C2
S113028094EA9093BC00ECEBF0E090819923ECF7B6
S11302908093BB0084E88093BC00ECEBF0E08081A9
S11302A08823ECF79091B900987F983129F081E088
S11302B0903419F480E0089580E0089584E98093EF
S11302C0BC0008951F920F920FB60F9211242F9322
S11302D08F939F93EF93FF938091C0002091C6006A
S11302E08C71E091C801EF5FEF719091C701E9173C
S11302F039F0E093C801F0E0E553FE4F208301C0DC
S113030082E09091C601892B8093C601FF91EF9101
S11303109F918F912F910F900FBE0F901F90189562
S11303201F920F920FB60F9211248F939F93EF9306
S1130330FF939091CA018091C901981769F0E091E7
S1130340C901EF5FEF71E093C901F0E0E551FE4FA1
S113035080818093C60005C0E1ECF0E080818F7D50
S11303608083FF91EF919F918F910F900FBE0F901B
S11303701F9018951092CA011092C9011092C801D9
S11303801092C70199231CF422E02093C0009078B6
S11303909093C5008093C40088E98093C10086E0EF
S11303A08093C20008952091CA012F5F2F7190910C
S11303B0C9012917E1F3E22FF0E0E551FE4F8083F4
S11303C02093CA01E1ECF0E080818062808308958B
S11303D0CF93DF93EC018881882331F021960E942A
S11303E0D30189918111FBCFDF91CF910895BB2770
S11303F04A3031F4992322F4BDE2909581959F4FC0
S11304000C940302BB27FB015527AA27880F991FC9
S1130410AA1FA41710F0A41B83955051B9F7A05D2F
S1130420AA3308F0A95DA193009779F7B111B193AC
S11304301192CB010C941C02DC01FC01672F719119
S11304407723E1F7329704C07C916D9370836291B6
S10F0450AE17BF07C8F30895F894FFCF5F
S113045C07010D0A5363616E204932432D62757393
S113046C20666F7220646576696365733A0D0A00C1
S113047C0D0A2020202020202E30202E31202E3238
S113048C202E33202E3420000D0A3078302E3A20C2
S113049C524120524120524120524120524120527B
S11304AC4120524120524120005241205241000D22
S11304BC0A2020202020202E30202E31202E3220E5
S11304CC2E33202E34202E35202E36202E37202E5F
S11304DC38202E39202E61202E62202E63202E648B
S11304EC202E65202E66000A0D3078302E3A2052CC
S11304FC412052412052412052412052412052412C
S113050C20524120524120000A0D3078002E3A200E
S109051C002D2D2000005B
S9030000FC
