:100000000C9434000C9451000C9451000C94510049
:100010000C9451000C9451000C9451000C9451001C
:100020000C9451000C9410010C9451000C9451004C
:100030000C9451000C9451000C9451000C945100FC
:100040000C9451000C9451000C9451000C945100EC
:100050000C9451000C9451000C9451000C945100DC
:100060000C9451000C94510011241FBECFEFD8E026
:10007000DEBFCDBF11E0A0E0B1E0EAE7F3E002C0EF
:1000800005900D92A033B107D9F721E0A0E3B1E0CC
:1000900001C01D92A433B207E1F70E94EA000C945C
:1000A000BB010C940000299A85E08A95F1F70000C5
:1000B00029980895CF93C82F662311F0289A01C07C
:1000C0002898549A559A569A579A5F985E985D98D0
:1000D0005C98CC230CF45F9AC6FD5E9AC5FD5D9AD0
:1000E000C4FD5C9A0E9453005F985E985D985C988E
:1000F000C3FD5F9AC2FD5E9AC1FD5D9AC0FD5C9A28
:100100000E9453005C9A5D9A5E9A5F9A87EB9BE02F
:100110000197F1F700C00000CF91089560E00E94C0
:100120005A00089561E00E945A000895611104C0C8
:1001300080580E948E00089580540E948E00089579
:1001400081E00E948E00089561E00E945A000895A7
:10015000CF93C82F209A559A219A549A559A569A15
:10016000579A8FEF99EF0197F1F700C000005D9A61
:100170005C9A0E9453008FE19EE40197F1F700C062
:1001800000000E9453008FEF90E00197F1F700C04C
:1001900000000E9453008FEF90E00197F1F700C03C
:1001A00000005C980E9453008FEF90E00197F1F7F8
:1001B00000C0000088E20E948E0088E00E948E004D
:1001C0000E94A00086E00E948E008C2F0E948E006C
:1001D000CF9108958CE00E94A80080E40E948E00D8
:1001E000C0E0D1E000E311E089910E949200C017C5
:1001F000D107D1F780E80E948E0060E081E00E9484
:10020000960085E00E94A400E1EBF0E08081876029
:100210008083E0E7F0E08081816080837894FFCF85
:100220001F920F920FB60F9211242F933F934F936B
:100230005F936F937F938F939F93AF93BF93EF934E
:10024000FF93CF93DF9300D01F92CDB7DEB780E24C
:1002500089838A838B83809133018F5F863018F482
:10026000809333013DC010923301809132018F5F42
:100270008A3018F48093320107C0109232018091C5
:1002800031018F5F80933101809131018A3038F0E4
:1002900010923101809130018F5F80933001809105
:1002A0003001863010F010923001809130014AE028
:1002B000BE016F5F7F4F90E00E9486018091310107
:1002C0004AE0BE016E5F7F4F90E00E948601809100
:1002D00032014AE0BE016D5F7F4F90E00E948601CF
:1002E0000F900F900F90DF91CF91FF91EF91BF9101
:1002F000AF919F918F917F916F915F914F913F91BE
:100300002F910F900FBE0F901F901895BB274A306A
:1003100031F4992322F4BDE2909581959F4F0C947E
:100320009201BB27FB015527AA27880F991FAA1FF7
:10033000A41710F0A41B83955051B9F7A05DAA3300
:1003400008F0A95DA193009779F7B111B1931192CB
:10035000CB010C94AB01DC01FC01672F7191772379
:10036000E1F7329704C07C916D9370836291AE1770
:0A037000BF07C8F30895F894FFCF0B
:10037A0006091C081C090600101010101010101095
:10038A0018181818181818181C1C1C1C1C1C1C1CC3
:10039A001E1E1E1E1E1E1E1E1F1F1F1F1F1F1F1F6B
:00000001FF
