S0120000696E74657272757074732E73726563B2
S11300000C9434000C9446000C9446000C94460066
S11300100C9446000C9446000C9446000C94460044
S11300200C9446000C9446000C9446000C94460034
S11300300C9446000C94A3000C9446000C944600C7
S11300400C9446000C9446000C9446000C94460014
S11300500C9446000C9446000C9446000C94460004
S11300600C9446000C94460011241FBECFEFD8E038
S1130070DEBFCDBF21E0A0E0B1E001C01D92A13000
S1130080B207E1F70E946C000C9414010C94000078
S1130090FC01408121E030E002C0220F331F6A9549
S11300A0E2F7242B20830895FC01408121E030E015
S11300B002C0220F331F6A95E2F7242B2083089590
S11300C0FC01408121E030E002C0220F331F6A9519
S11300D0E2F724272083089565E084E290E00E94FB
S11300E0480065E085E290E00E94540064E084E208
S11300F090E00E94480064E085E290E00E94540091
S113010063E084E290E00E94480063E085E290E0CE
S11301100E94540062E084E290E00E94480062E0A1
S113012085E290E00E945400E1E8F0E080818B7F5A
S11301308083808183608083EFE6F0E0808181604A
S113014080837894FFCF1F920F920FB60F921124E1
S11301502F933F934F935F936F937F938F939F93CB
S1130160AF93BF93EF93FF938091000181110BC074
S113017065E085E290E00E946000809100018F5F5D
S11301808093000140C0813011F08630B1F465E005
S113019085E290E00E94600064E085E290E00E94C5
S11301A0600080910001813021F482E0809300019D
S11301B02AC081E08093000126C0823011F085308E
S11301C081F464E085E290E00E94600063E085E2EF
S11301D090E00E946000809100018F5F8093000195
S11301E012C08350823078F463E085E290E00E948C
S11301F0600062E085E290E00E946000809100016E
S11302008F5F80930001FF91EF91BF91AF919F9118
S11302108F917F916F915F914F913F912F910F90AB
S10F02200FBE0F901F901895F894FFCFAC
S9030000FC
