:100000000C9434000C943E000C943E000C943E0082
:100010000C943E000C943E000C943E000C943E0068
:100020000C943E000C943E000C943E000C943E0058
:100030000C943E000C943E000C943E000C943E0048
:100040000C943E000C943E000C943E000C943E0038
:100050000C943E000C943E000C943E000C943E0028
:100060000C943E000C943E0011241FBECFEFD8E04C
:10007000DEBFCDBF0E9440000C9474000C940000C1
:10008000259A2D9880E22FEF3DE399E421503040EE
:100090009040E1F700C0000095B1982795B92FEF87
:1000A00039E698E1215030409040E1F700C000006F
:1000B00095B1982795B92FEF39E698E12150304056
:1000C0009040E1F700C0000095B1982795B92FEF57
:1000D0003DE399E4215030409040E1F700C000003A
:0C00E00095B1982795B9CFCFF894FFCFC9
:00000001FF
